{
  "_format": "hh-sol-artifact-1",
  "contractName": "BuyMeACoffee",
  "sourceName": "contracts/BuyMeACoffee.sol",
  "abi": [
    {
      "inputs": [],
      "stateMutability": "nonpayable",
      "type": "constructor"
    },
    {
      "anonymous": false,
      "inputs": [
        {
          "indexed": false,
          "internalType": "string",
          "name": "",
          "type": "string"
        },
        {
          "indexed": false,
          "internalType": "string",
          "name": "",
          "type": "string"
        },
        {
          "indexed": false,
          "internalType": "address",
          "name": "",
          "type": "address"
        },
        {
          "indexed": false,
          "internalType": "uint256",
          "name": "",
          "type": "uint256"
        }
      ],
      "name": "newMemo",
      "type": "event"
    },
    {
      "inputs": [
        {
          "internalType": "string",
          "name": "_name",
          "type": "string"
        },
        {
          "internalType": "string",
          "name": "_message",
          "type": "string"
        }
      ],
      "name": "BuyACoffee",
      "outputs": [],
      "stateMutability": "payable",
      "type": "function"
    },
    {
      "inputs": [],
      "name": "getMemos",
      "outputs": [
        {
          "components": [
            {
              "internalType": "string",
              "name": "name",
              "type": "string"
            },
            {
              "internalType": "string",
              "name": "message",
              "type": "string"
            },
            {
              "internalType": "address",
              "name": "from",
              "type": "address"
            },
            {
              "internalType": "uint256",
              "name": "timestamp",
              "type": "uint256"
            }
          ],
          "internalType": "struct BuyMeACoffee.Memo[]",
          "name": "",
          "type": "tuple[]"
        }
      ],
      "stateMutability": "view",
      "type": "function"
    },
    {
      "inputs": [],
      "name": "withdrawTips",
      "outputs": [],
      "stateMutability": "nonpayable",
      "type": "function"
    }
  ],
  "bytecode": "0x608060405234801561001057600080fd5b5033600160006101000a81548173ffffffffffffffffffffffffffffffffffffffff021916908373ffffffffffffffffffffffffffffffffffffffff160217905550610af3806100616000396000f3fe6080604052600436106100345760003560e01c80633aaa74b214610039578063865c517214610050578063933accc11461007b575b600080fd5b34801561004557600080fd5b5061004e610097565b005b34801561005c57600080fd5b5061006561015c565b60405161007291906107f3565b60405180910390f35b610095600480360381019061009091906105c3565b61033f565b005b600160009054906101000a900473ffffffffffffffffffffffffffffffffffffffff1673ffffffffffffffffffffffffffffffffffffffff163373ffffffffffffffffffffffffffffffffffffffff16146100f157600080fd5b600160009054906101000a900473ffffffffffffffffffffffffffffffffffffffff1673ffffffffffffffffffffffffffffffffffffffff166108fc479081150290604051600060405180830381858888f19350505050158015610159573d6000803e3d6000fd5b50565b60606000805480602002602001604051908101604052809291908181526020016000905b8282101561033657838290600052602060002090600402016040518060800160405290816000820180546101b3906109c2565b80601f01602080910402602001604051908101604052809291908181526020018280546101df906109c2565b801561022c5780601f106102015761010080835404028352916020019161022c565b820191906000526020600020905b81548152906001019060200180831161020f57829003601f168201915b50505050508152602001600182018054610245906109c2565b80601f0160208091040260200160405190810160405280929190818152602001828054610271906109c2565b80156102be5780601f10610293576101008083540402835291602001916102be565b820191906000526020600020905b8154815290600101906020018083116102a157829003601f168201915b505050505081526020016002820160009054906101000a900473ffffffffffffffffffffffffffffffffffffffff1673ffffffffffffffffffffffffffffffffffffffff1673ffffffffffffffffffffffffffffffffffffffff16815260200160038201548152505081526020019060010190610180565b50505050905090565b60003411610382576040517f08c379a000000000000000000000000000000000000000000000000000000000815260040161037990610868565b60405180910390fd5b600060405180608001604052808481526020018381526020013373ffffffffffffffffffffffffffffffffffffffff1681526020014281525090507f0a54f0898120a63d49aefd8bf3aa0aa596d76b09c8fa0fc01fc287715b6b7351838333426040516103f29493929190610815565b60405180910390a1600081908060018154018082558091505060019003906000526020600020906004020160009091909190915060008201518160000190805190602001906104429291906104b8565b50602082015181600101908051906020019061045f9291906104b8565b5060408201518160020160006101000a81548173ffffffffffffffffffffffffffffffffffffffff021916908373ffffffffffffffffffffffffffffffffffffffff160217905550606082015181600301555050505050565b8280546104c4906109c2565b90600052602060002090601f0160209004810192826104e6576000855561052d565b82601f106104ff57805160ff191683800117855561052d565b8280016001018555821561052d579182015b8281111561052c578251825591602001919060010190610511565b5b50905061053a919061053e565b5090565b5b8082111561055757600081600090555060010161053f565b5090565b600061056e610569846108ad565b610888565b90508281526020810184848401111561058657600080fd5b610591848285610980565b509392505050565b600082601f8301126105aa57600080fd5b81356105ba84826020860161055b565b91505092915050565b600080604083850312156105d657600080fd5b600083013567ffffffffffffffff8111156105f057600080fd5b6105fc85828601610599565b925050602083013567ffffffffffffffff81111561061957600080fd5b61062585828601610599565b9150509250929050565b600061063b838361076b565b905092915050565b61064c81610944565b82525050565b61065b81610944565b82525050565b600061066c826108ee565b6106768185610911565b935083602082028501610688856108de565b8060005b858110156106c457848403895281516106a5858261062f565b94506106b083610904565b925060208a0199505060018101905061068c565b50829750879550505050505092915050565b60006106e1826108f9565b6106eb8185610922565b93506106fb81856020860161098f565b61070481610a83565b840191505092915050565b600061071a826108f9565b6107248185610933565b935061073481856020860161098f565b61073d81610a83565b840191505092915050565b6000610755601c83610933565b915061076082610a94565b602082019050919050565b6000608083016000830151848203600086015261078882826106d6565b915050602083015184820360208601526107a282826106d6565b91505060408301516107b76040860182610643565b5060608301516107ca60608601826107d5565b508091505092915050565b6107de81610976565b82525050565b6107ed81610976565b82525050565b6000602082019050818103600083015261080d8184610661565b905092915050565b6000608082019050818103600083015261082f818761070f565b90508181036020830152610843818661070f565b90506108526040830185610652565b61085f60608301846107e4565b95945050505050565b6000602082019050818103600083015261088181610748565b9050919050565b60006108926108a3565b905061089e82826109f4565b919050565b6000604051905090565b600067ffffffffffffffff8211156108c8576108c7610a54565b5b6108d182610a83565b9050602081019050919050565b6000819050602082019050919050565b600081519050919050565b600081519050919050565b6000602082019050919050565b600082825260208201905092915050565b600082825260208201905092915050565b600082825260208201905092915050565b600061094f82610956565b9050919050565b600073ffffffffffffffffffffffffffffffffffffffff82169050919050565b6000819050919050565b82818337600083830152505050565b60005b838110156109ad578082015181840152602081019050610992565b838111156109bc576000848401525b50505050565b600060028204905060018216806109da57607f821691505b602082108114156109ee576109ed610a25565b5b50919050565b6109fd82610a83565b810181811067ffffffffffffffff82111715610a1c57610a1b610a54565b5b80604052505050565b7f4e487b7100000000000000000000000000000000000000000000000000000000600052602260045260246000fd5b7f4e487b7100000000000000000000000000000000000000000000000000000000600052604160045260246000fd5b6000601f19601f8301169050919050565b7f63616e7420627579206120636f6666656520776974682030204554480000000060008201525056fea2646970667358221220ead134f599dd6b6e707dbb6d91eda6b5002fc058edbdce7fefa35a20cbb27cd064736f6c63430008040033",
  "linkReferences": {},
  "deployedLinkReferences": {}
}